:020000040000FA
:100000000C945D000C9485000C9485000C94850084
:100010000C9485000C9485000C9485000C9485004C
:100020000C9485000C9485000C9485000C9485003C
:100030000C9485000C9485000C9485000C9485002C
:100040000C94E5040C9485000C9455050C942F0534
:100050000C9485000C9485000C9485000C9485000C
:100060000C9485000C94850000000008000201003B
:100070000003040700000000000000000000000072
:10008000250028002B0000000000240027002A0083
:10009000040404040404040402020202020203032E
:1000A0000303030301020408102040800102040836
:1000B0001020010204081020870511241FBECFEF75
:1000C000D8E0DEBFCDBF11E0A0E0B1E0E8EAF2E1A8
:1000D00002C005900D92AC35B107D9F722E0ACE52E
:1000E000B1E001C01D92A232B207E1F710E0CDE508
:1000F000D0E004C02197FE010E944C09CC35D10705
:10010000C9F70E94D1050C9452090C94000090E0AC
:10011000FC01EC55FF4F249180579F4FFC018491C7
:10012000882399F090E0880F991FFC01EA57FF4F50
:10013000A591B491FC01E458FF4F859194918FB73C
:10014000F894EC91E22BEC938FBF089590E0FC01C2
:10015000E859FF4F2491FC01EC55FF4F3491FC010D
:10016000E057FF4FE491EE23C9F0222339F023300A
:1001700001F1A8F4213019F1223029F1F0E0EE0F5D
:10018000FF1FE458FF4FA591B4918FB7F894EC91FD
:10019000611126C030953E233C938FBF08952730D0
:1001A000A9F02830C9F0243049F7809180008F7D74
:1001B00003C0809180008F7780938000DFCF84B56B
:1001C0008F7784BDDBCF84B58F7DFBCF8091B0006E
:1001D0008F778093B000D2CF8091B0008F7DF9CF20
:1001E0003E2BDACF3FB7F8948091690190916A0174
:1001F000A0916B01B0916C0126B5A89B05C02F3F63
:1002000019F00196A11DB11D3FBFBA2FA92F982F3C
:100210008827BC01CD01620F711D811D911D42E037
:10022000660F771F881F991F4A95D1F708958F92FF
:100230009F92AF92BF92CF92DF92EF92FF920E9475
:10024000F2004B015C0188EEC82E83E0D82EE12C31
:10025000F12C0E94F200681979098A099B09683E0D
:10026000734081059105A8F321E0C21AD108E10885
:10027000F10888EE880E83E0981EA11CB11CC11401
:10028000D104E104F10429F7FF90EF90DF90CF90C3
:10029000BF90AF909F908F900895AF92BF92CF92F2
:1002A000DF92EF92FF920F931F93CF93DF936C0136
:1002B0007B018B01040F151FEB015E01AE18BF0817
:1002C000C017D10759F06991D601ED91FC910190C9
:1002D000F081E02DC6010995892B79F7C501DF91E1
:1002E000CF911F910F91FF90EF90DF90CF90BF9033
:1002F000AF900895FC01538D448D252F30E0842F5D
:1003000090E0821B930B541710F0CF96089501973D
:100310000895FC01918D828D981761F0A28DAE0F2A
:10032000BF2FB11D5D968C91928D9F5F9F73928FB1
:1003300090E008958FEF9FEF0895FC01918D828DDD
:10034000981731F0828DE80FF11D858D90E00895AA
:100350008FEF9FEF0895FC01918D228D892F90E002
:10036000805C9F4F821B91098F73992708958DE6BA
:1003700091E00E94AB0121E0892B09F420E0822F5B
:10038000089580E090E0892B29F00E94B701811147
:100390000C9400000895FC01A48DA80FB92FB11D85
:1003A000A35ABF4F2C91848D90E001968F739927AB
:1003B000848FA689B7892C93A089B1898C91837089
:1003C00080648C93938D848D981306C00288F38982
:1003D000E02D80818F7D80830895EF92FF920F93AF
:1003E0001F93CF93DF93EC0181E0888F9B8D8C8DE1
:1003F00098131AC0E889F989808185FF15C09FB7D5
:10040000F894EE89FF896083E889F9898081837097
:10041000806480839FBF81E090E0DF91CF911F9146
:100420000F91FF90EF900895F62E0B8D10E00F5F67
:100430001F4F0F731127E02E8C8D8E110CC00FB63D
:1004400007FCFACFE889F989808185FFF5CFCE01D5
:100450000E94CB01F1CFEB8DEC0FFD2FF11DE35A84
:10046000FF4FF0829FB7F8940B8FEA89FB89808158
:100470008062CFCFCF93DF93EC01888D8823B9F0D2
:10048000AA89BB89E889F9898C9185FD03C080819F
:1004900086FD0DC00FB607FCF7CF8C9185FFF2CF1C
:1004A000808185FFEDCFCE010E94CB01E9CFDF91A6
:1004B000CF910895089590E080E00895FC010190A7
:1004C0000020E9F73197AF01481B590BBC018AE0C6
:1004D00092E00C944D018F929F92AF92BF920F9336
:1004E0001F93CF93DF93CDB7DEB7A1970FB6F894E4
:1004F000DEBF0FBECDBF19A2423008F44AE08E0124
:100500000F5D1F4F842E912CB12CA12CA5019401BD
:100510000E942A09E62FB901CA01EA30F4F4E05D2D
:10052000D801EE938D01232B242B252B79F790E016
:1005300080E0109719F0CD010E945E02A1960FB6DF
:10054000F894DEBF0FBECDBFDF91CF911F910F9109
:10055000BF90AF909F908F900895E95CE1CFCF93CB
:10056000DF93EC0160E08E810E94A60061E08E8145
:100570000E94A60060E08E810E94A6008BE891E0B8
:100580000197F1F7DF91CF910895CF92DF92EF922B
:10059000FF920F931F93CF93DF936C017C0187E051
:1005A000E80EF11CD0E0C0E0062F10E0B8010C2EE0
:1005B00002C0759567950A94E2F76170F701819121
:1005C0007F010E94A6002196C430D10579F7C601AB
:1005D000DF91CF911F910F91FF90EF90DF90CF901F
:1005E0000C94AF02CF92DF92EF92FF920F931F9382
:1005F000CF93DF93EC01F62E642F8C810E94A6002E
:100600008D818F3F19F060E00E94A6000F2D10E051
:100610008F8584FF25C06E0187E0C80ED11CF12CA8
:10062000E12CB8010E2C02C0759567950A94E2F78B
:100630006170F60181916F010E94A600FFEFEF1A31
:10064000FF0A88E0E816F10461F7CE01DF91CF914F
:100650001F910F91FF90EF90DF90CF900C94AF021D
:10066000B80184E0759567958A95E1F7CE010E94FF
:10067000C5026F2DCE01DF91CF911F910F91FF9099
:10068000EF90DF90CF900C94C50240E0682F8AE095
:1006900092E00C94F20281E00E9445038BE39FE11B
:1006A0000197F1F70895CF93DF93823029F4909169
:1006B000190298609093190280931D0210921E02F5
:1006C00080E480931F0280E18093200280E5809384
:1006D000210280910E020E94870080910F028F3FBD
:1006E00011F00E948700809110020E948700CAE0EA
:1006F000D2E09E012A5032408091190284FD0AC046
:1007000084E090E02196281739073CF48E810E94FE
:100710008700EFCF88E090E0F5CF8BE39DE0019775
:10072000F1F760E080910E020E94A60060E08091E7
:1007300010020E94A60080910F028F3F19F060E026
:100740000E94A6008091190284FD34C063E08AE013
:1007500092E00E94C502CBE4D6E4CE010197F1F706
:1007600063E08AE092E00E94C5022197F1F763E01E
:100770008AE092E00E94C50283E592E00197F1F7DA
:1007800062E08AE092E00E94C502809119028062D4
:100790000E94450384E080931A028CE00E94450386
:1007A0000E944B0382E080931B0286E0DF91CF9191
:1007B0000C94450380620E9445038BE496E4019704
:1007C000F1F78091190280620E94450383E592E06F
:1007D0000197F1F78091190280620E944503D5CFFD
:1007E00090911D02891710F08FEF890FE82FF0E02C
:1007F000E65FFD4F848980680C94450341E00E94C8
:10080000F20281E090E0089541E0682F8AE092E0F2
:100810000E94F20281E090E008954F925F926F9201
:100820007F928F929F92AF92BF92CF92DF92EF9280
:10083000FF920F931F93CF936B017C01742EAC0139
:100840009B010E942509882399F08FE191E0CF91C7
:100850001F910F91FF90EF90DF90CF90BF90AF90DE
:100860009F908F907F906F905F904F900C945E025E
:1008700046015701E894B7F82FEF3FEF4FE75FE7E6
:10088000C501B4010E94250981110DC02FEF3FEF72
:100890004FE75FE7C501B4010E945B0718161CF41F
:1008A00083E291E0D4CF2FEF3FEF4FE75FE4C70142
:1008B000B6010E94B30818161CF487E291E0C7CF76
:1008C0002FEF3FEF4FE75FECC701B6010E945B07D8
:1008D00087FDF3CF20E030E0A901C701B6010E94F7
:1008E0005B0710E000E087FF08C08DE20E9404046F
:1008F0008C01F7FAF094F7F8F094C0E060E070E053
:1009000080E09FE37C1641F020E030E040E251E4DB
:100910000E946007CF5FF6CFA70196010E94EF0605
:100920002B013C010E94D2074B015C014AE00E946E
:100930006B027C01E00EF11ECC23B1F1C501B401C4
:100940000E9401089B01AC01C301B2010E94EE06A6
:100950004B015C018EE20E940404E80EF91EC150B6
:1009600018F120E030E040E251E4C501B4010E94FA
:10097000B8082B013C010E94D2074B01B12CA12CDD
:100980004AE0C501B4010E946B02E80EF91EC501E0
:10099000B4010E9401089B01AC01C301B2010E9495
:1009A000EE064B015C01DBCFC701CF911F910F9188
:1009B000FF90EF90DF90CF90BF90AF909F908F907F
:1009C0007F906F905F904F9008951F920F920FB697
:1009D0000F9211242F933F938F939F93AF93BF93C5
:1009E0008091650190916601A0916701B0916801C5
:1009F0003091640123E0230F2D3758F50196A11D96
:100A0000B11D209364018093650190936601A093CA
:100A10006701B09368018091690190916A01A0918A
:100A20006B01B0916C010196A11DB11D809369010C
:100A300090936A01A0936B01B0936C01BF91AF9149
:100A40009F918F913F912F910F900FBE0F901F900C
:100A5000189526E8230F0296A11DB11DD2CF1F9233
:100A60000F920FB60F9211242F933F934F935F93E2
:100A70006F937F938F939F93AF93BF93EF93FF9366
:100A80008DE691E00E94CB01FF91EF91BF91AF9174
:100A90009F918F917F916F915F914F913F912F9196
:100AA0000F900FBE0F901F9018951F920F920FB6C8
:100AB0000F9211242F938F939F93EF93FF93E091C5
:100AC0007D01F0917E018081E0918301F0918401AC
:100AD00082FD1BC09081809186018F5F8F73209172
:100AE0008701821741F0E0918601F0E0E359FE4F63
:100AF000958F80938601FF91EF919F918F912F9118
:100B00000F900FBE0F901F9018958081F4CFEDE6E7
:100B1000F1E01382128288EE93E0A0E0B0E08483DB
:100B20009583A683B78385E091E09183808385ECEC
:100B300090E09587848784EC90E09787868780ECA7
:100B400090E0918B808B81EC90E0938B828B82EC98
:100B500090E0958B848B86EC90E0978B868B118E42
:100B6000128E138E148EEAE0F2E01382128287E175
:100B700091E09183808382E084838FEF858383E09B
:100B8000868384E0878385E0808786E0818787E0AD
:100B900082871386148615861686178681E00C9444
:100BA0005303789484B5826084BD84B5816084BD2C
:100BB00085B5826085BD85B5816085BD80916E00FB
:100BC000816080936E00109281008091810082602C
:100BD0008093810080918100816080938100809169
:100BE00080008160809380008091B1008460809358
:100BF000B1008091B00081608093B00080917A0054
:100C0000846080937A0080917A00826080937A0079
:100C100080917A00816080937A0080917A00806868
:100C200080937A001092C100E0917D01F0917E01E5
:100C300082E08083E0917901F0917A011082E09165
:100C40007B01F0917C018FEC808310928501E09113
:100C50008101F091820186E08083E0917F01F09133
:100C60008001808180618083E0917F01F09180012B
:100C7000808188608083E0917F01F0918001808194
:100C800080688083E0917F01F091800180818F7D79
:100C9000808383E08093000182E00E94530380E020
:100CA0000E94F0038BE291E00E945E0281E00E94CC
:100CB000F0038DE391E00E945E020E9417010E9402
:100CC0004B03C0E0D0E08091000120E4829FC0018E
:100CD0001124816080937C0080917A0080648093ED
:100CE0007A0080917A0086FDFCCF60917800709147
:100CF0007900072E000C880B990B0E94030820E056
:100D000030E849E854E40E94B80820E030E040E2CE
:100D100056E40E94600760936001709361018093C4
:100D200062019093630120E030E040E151E40E94D1
:100D3000B80820E030E040EA50E40E94600720E07C
:100D400030E040E052E40E94EF0660935C01709353
:100D50005D0180935E0190935F0180E00E94F0034B
:100D600081E591E00E945E026091600170916101F5
:100D7000809162019091630142E00E940D048FED29
:100D80000E94040488E591E00E945E0281E00E94D6
:100D9000F00381E591E00E945E0260915C01709138
:100DA0005D0180915E0190915F0142E00E940D041F
:100DB0008FED0E9404048AE591E00E945E020E9489
:100DC00017010E944B03209709F47DCF0E94B701C1
:100DD000882309F478CF0E94000075CF5058BB27B4
:100DE000AA270E9406070C9479080E946B0838F025
:100DF0000E94720820F039F49F3F19F426F40C94F5
:100E000068080EF4E095E7FB0C946208E92F0E9455
:100E10008A0858F3BA17620773078407950720F00A
:100E200079F4A6F50C94AC080EF4E0950B2EBA2FCD
:100E3000A02D0B01B90190010C01CA01A0011124E0
:100E4000FF27591B99F0593F50F4503E68F11A168C
:100E5000F040A22F232F342F4427585FF3CF46951D
:100E600037952795A795F0405395C9F77EF41F163F
:100E7000BA0B620B730B840BBAF09150A1F0FF0F09
:100E8000BB1F661F771F881FC2F70EC0BA0F621FF5
:100E9000731F841F48F4879577956795B795F795E5
:100EA0009E3F08F0B0CF9395880F08F09927EE0F7A
:100EB0009795879508950E943E0808F481E008956B
:100EC0000E9474070C9479080E94720858F00E94DE
:100ED0006B0840F029F45F3F29F00C94620851112F
:100EE0000C94AD080C9468080E948A0868F3992352
:100EF000B1F3552391F3951B550BBB27AA27621716
:100F00007307840738F09F5F5F4F220F331F441F22
:100F1000AA1FA9F335D00E2E3AF0E0E832D0915056
:100F20005040E695001CCAF72BD0FE2F29D0660F43
:100F3000771F881FBB1F261737074807AB07B0E886
:100F400009F0BB0B802DBF01FF2793585F4F3AF08C
:100F50009E3F510578F00C9462080C94AD085F3FF9
:100F6000E4F3983ED4F3869577956795B795F79512
:100F70009F5FC9F7880F911D9695879597F90895FA
:100F8000E1E0660F771F881FBB1F62177307840796
:100F9000BA0720F0621B730B840BBA0BEE1F88F7A5
:100FA000E09508950E94920888F09F5798F0B92F15
:100FB0009927B751B0F0E1F0660F771F881F991F8E
:100FC0001AF0BA95C9F714C0B13091F00E94AC087C
:100FD000B1E008950C94AC08672F782F8827B85F8C
:100FE00039F0B93FCCF3869577956795B395D9F7E6
:100FF0003EF490958095709561957F4F8F4F9F4FF0
:101000000895E89409C097FB3EF4909580957095FB
:1010100061957F4F8F4F9F4F9923A9F0F92F96E944
:10102000BB279395F695879577956795B795F111B9
:10103000F8CFFAF4BB0F11F460FF1BC06F5F7F4F56
:101040008F4F9F4F16C0882311F096E911C0772368
:1010500021F09EE8872F762F05C0662371F096E871
:10106000862F70E060E02AF09A95660F771F881F40
:10107000DAF7880F9695879597F90895990F0008E4
:10108000550FAA0BE0E8FEEF16161706E807F9075A
:10109000C0F012161306E407F50798F0621B730BF5
:1010A000840B950B39F40A2661F0232B242B252B76
:1010B00021F408950A2609F4A140A6958FEF811D19
:1010C000811D089597F99F6780E870E060E00895BA
:1010D0009FEF80EC089500240A9416161706180650
:1010E0000906089500240A9412161306140605062C
:1010F0000895092E0394000C11F4882352F0BB0FBD
:1011000040F4BF2B11F460FF04C06F5F7F4F8F4F1F
:101110009F4F089557FD9058440F551F59F05F3F5A
:1011200071F04795880F97FB991F61F09F3F79F009
:1011300087950895121613061406551FF2CF46958B
:10114000F1DF08C0161617061806991FF1CF86950D
:101150007105610508940895E894BB2766277727F1
:10116000CB0197F908950E943E0808F48FEF089587
:101170000E94CB080C9479080E946B0838F00E94FA
:10118000720820F0952311F00C9462080C94680802
:1011900011240C94AD080E948A0870F3959FC1F346
:1011A000950F50E0551F629FF001729FBB27F00D15
:1011B000B11D639FAA27F00DB11DAA1F649F66276A
:1011C000B00DA11D661F829F2227B00DA11D621FB9
:1011D000739FB00DA11D621F839FA00D611D221F73
:1011E000749F3327A00D611D231F849F600D211D57
:1011F000822F762F6A2F11249F5750409AF0F1F0DA
:1012000088234AF0EE0FFF1FBB1F661F771F881F42
:1012100091505040A9F79E3F510580F00C94620810
:101220000C94AD085F3FE4F3983ED4F38695779530
:101230006795B795F795E7959F5FC1F7FE2B880FE8
:10124000911D9695879597F908950E943E08880B01
:10125000990B0895A1E21A2EAA1BBB1BFD010DC01C
:10126000AA1FBB1FEE1FFF1FA217B307E407F50756
:1012700020F0A21BB30BE40BF50B661F771F881F32
:10128000991F1A9469F760957095809590959B01C8
:10129000AC01BD01CF010895EE0FFF1F0590F49141
:1012A000E02D0994F894FFCF0100000000ED014DFE
:1012B000017A013A02AB0189019D0100000000FEA4
:1012C000034D015B025A026E616E00696E66006F2B
:1012D0007666002020204D616465206279204D6192
:1012E00068696E2000202042617369632050726F2C
:1012F0006A656374202020200054454D503A200038
:041300004300460060
:107E0000112484B714BE81FFF0D085E080938100F7
:107E100082E08093C00088E18093C10086E0809377
:107E2000C20080E18093C4008EE0C9D0259A86E02C
:107E300020E33CEF91E0309385002093840096BBD3
:107E4000B09BFECF1D9AA8958150A9F7CC24DD24C4
:107E500088248394B5E0AB2EA1E19A2EF3E0BF2EE7
:107E6000A2D0813461F49FD0082FAFD0023811F036
:107E7000013811F484E001C083E08DD089C08234E0
:107E800011F484E103C0853419F485E0A6D080C0E4
:107E9000853579F488D0E82EFF2485D0082F10E0AE
:107EA000102F00270E291F29000F111F8ED06801E7
:107EB0006FC0863521F484E090D080E0DECF843638
:107EC00009F040C070D06FD0082F6DD080E0C81688
:107ED00080E7D80618F4F601B7BEE895C0E0D1E017
:107EE00062D089930C17E1F7F0E0CF16F0E7DF06D8
:107EF00018F0F601B7BEE89568D007B600FCFDCFD4
:107F0000A601A0E0B1E02C9130E011968C91119780
:107F100090E0982F8827822B932B1296FA010C0160
:107F200087BEE89511244E5F5F4FF1E0A038BF0790
:107F300051F7F601A7BEE89507B600FCFDCF97BE46
:107F4000E89526C08437B1F42ED02DD0F82E2BD052
:107F50003CD0F601EF2C8F010F5F1F4F84911BD097
:107F6000EA94F801C1F70894C11CD11CFA94CF0C13
:107F7000D11C0EC0853739F428D08EE10CD085E9AC
:107F80000AD08FE07ACF813511F488E018D01DD067
:107F900080E101D065CF982F8091C00085FFFCCF94
:107FA0009093C60008958091C00087FFFCCF809118
:107FB000C00084FD01C0A8958091C6000895E0E648
:107FC000F0E098E1908380830895EDDF803219F02E
:107FD00088E0F5DFFFCF84E1DECF1F93182FE3DFCA
:107FE0001150E9F7F2DF1F91089580E0E8DFEE27F6
:047FF000FF270994CA
:027FFE00040479
:00000001FF
